:04000000F7EF01F025
:08000800046ED8CF05F0E0CF33
:1000100006F00001E9CF0CF0EACF07F0E1CF08F0DD
:10002000E2CF09F0D9CF0AF0DACF0BF0F3CF12F01C
:10003000F4CF13F0FACF14F0F5CF15F0F6CF16F099
:10004000F7CF17F000C00EF001C00FF002C010F0A3
:1000500003C011F0F2AA30EF00F0F2B457EF00F055
:100060000EC000F00FC001F010C002F011C003F08C
:100070000CC0E9FF07C0EAFF078E08C0E1FF09C016
:10008000E2FF0AC0D9FF0BC0DAFF12C0F3FF13C0B2
:10009000F4FF14C0FAFF15C0F5FF16C0F6FF17C035
:1000A000F7FF045006C0E0FF05C0D8FF10001E2C6B
:1000B00004D0232AD8B4242A02D0246A236AD76A17
:1000C000D90ED66EF29430EF00F03F50070B006E61
:1000D0003F30016E013201321F0E011601504124E2
:1000E000E96E000E4220EA6E016A012A002A01D060
:1000F0000136002EFDD7405203E00150EF1203D02D
:10010000011E0150EF161200016A026A006A036ABA
:10011000505002E14F5018E0100E516ED8904D36FD
:100120004E36003603365050035C02E14F50005CFF
:1001300007E34F50005ED8A003065050035ED880FE
:1001400001360236512EEAD712004D504F02F3CF3E
:1001500001F0F4CF00F05002F35000264E504F0251
:10016000F3500020026E120041503F5C496E425035
:1001700040584A6E4550475C006E46504858036EE2
:1001800000C04BF04C6E4AC04EF049C04DF0506E6E
:1001900000C04FF0DADF02C04AF001C04DF041501C
:1001A000435C4B6E425044584C6E45504B24016E9C
:1001B00046504C20036E01C04BF04C6E02C04EF016
:1001C000506E01C04FF0A0DF02C003F002C002F089
:1001D0009FEF01F03F50070B006E3F30016E013280
:1001E00001321F0E011601504024E96E000E41201D
:1001F000EA6EEFCF01F0002A01D00132002EFDD7C8
:10020000010E0116B1EF01F0010E2F5CFA0F54E25E
:10021000060FE4EF01F0305211E11BC03FF0406ADD
:100220000F0E426E890E416E50DF1BC03FF0406AD8
:100230000F0E426E920E416E48DF11D01BC03FF090
:10024000010E406E0F0E426E890E416E3EDF1BC0E6
:100250003FF0406A0F0E426E920E416E36DF1AC0BA
:100260003EF02AD0305211E11DC03FF0406A0F0E1F
:10027000426E890E416E29DF1DC03FF0406A0F0EAD
:10028000426E920E416E21DF11D01DC03FF0010E73
:10029000406E0F0E426E890E416E17DF1DC03FF09B
:1002A000406A0F0E426E920E416E0FDF1CC03EF090
:1002B00003D002D001D000D0070E4E6E080E4D6E56
:1002C000506A35C04FF020DF02C039F001C038F06D
:1002D00032C04EF031C04DF0506A640E4F6E35DFC3
:1002E00002C040F001C03FF002C04EF001C04DF02E
:1002F00039C050F038C04FF007DF02C040F001C0F5
:100300003FF002C04EF001C04DF0506A140E4F6E27
:100310001CDF3D6A3C6A02C03BF001C03AF034C0C9
:1003200040F033C03FF0426A416A446A640E436E53
:10033000020E466E580E456E486A476A15D702C0CF
:1003400037F001C036F03750245C28E303E1365023
:10035000235C24E33EC03FF00F0E416E800E406EE2
:1003600039D7000E01A0010E3EC03FF0406E0F0EC7
:10037000426E890E416EA9DE3EC03FF0406A0F0E0C
:10038000426E920E416EA1DE246A236A010E1F2680
:10039000D8B0202AD8B4212AD8B4222A3D50225CD1
:1003A00011E30BE13C50215C0DE307E13B50205C85
:1003B00009E303E13A501F5C05E31E6A226A216AE1
:1003C000206A1F6A74EF02F0E824F76AF736E30F39
:1003D000F66E030EF7220A00F550FA6E0800F5508B
:1003E000F96E16026402B202B402B602B802F86AEA
:1003F000D09E078E196A010E1A6E020E1B6E030E36
:100400001C6E040E1D6E1E6A226A216A206A1F6A13
:10041000246A236AC150C00B0F09C16E070EB46E67
:10042000256A276A050E266E296A5A0E286E080E5E
:100430002A6E2B6A2C6A2D6A2E6AC40ED56ED76A74
:10044000D90ED66EF28AC00EF212938081B006D019
:100450002B5203E1010E1E6E2B6E01D02B6A93828C
:1004600081B208D02C5205E1262AD8B4272A010EE1
:100470002C6E01D02C6A938481B409D02D5206E1F0
:10048000050E285E000E295A010E2D6E01D02D6A30
:10049000938681B606D02E5203E1251E010E2E6EE4
:1004A00001D02E6A1E2C21D019C03FF0010E406EE3
:1004B0000F0E426E890E416E08DE19C03FF0406A91
:1004C0000F0E426E920E416E00DE010E2F6E25C0A1
:1004D00030F027C032F026C031F029C034F028C0F7
:1004E00033F02AC035F090D617D0246A236A226AE6
:1004F000216A206A1F6A1E6A19C03FF0406A0F0E07
:10050000426E890E416EE1DD19C03FF0406A0F0E68
:0C051000426E920E416ED9DD98D70300B8
:020000040030CA
:0E0000003FCC3E1E0087A1000FC00FE00F4056
:00000001FF
;PIC18F4550
;CRC=385A  CREATED="20-abr.-19 23:38"
